{"abi":[{"type":"constructor","inputs":[],"stateMutability":"nonpayable"},{"type":"function","name":"admin","inputs":[],"outputs":[{"name":"","type":"address","internalType":"address"}],"stateMutability":"view"},{"type":"function","name":"deposit","inputs":[{"name":"user","type":"address","internalType":"address"},{"name":"amount","type":"uint256","internalType":"uint256"}],"outputs":[],"stateMutability":"payable"},{"type":"function","name":"userBalances","inputs":[{"name":"","type":"address","internalType":"address"}],"outputs":[{"name":"","type":"uint256","internalType":"uint256"}],"stateMutability":"view"},{"type":"function","name":"vaultBalance","inputs":[],"outputs":[{"name":"","type":"uint256","internalType":"uint256"}],"stateMutability":"view"},{"type":"function","name":"withdrawToMerchant","inputs":[{"name":"amount","type":"uint256","internalType":"uint256"},{"name":"merchant","type":"address","internalType":"address"}],"outputs":[],"stateMutability":"nonpayable"}],"bytecode":{"object":"0x608060405234801561001057600080fd5b50336000806101000a81548173ffffffffffffffffffffffffffffffffffffffff021916908373ffffffffffffffffffffffffffffffffffffffff160217905550610711806100606000396000f3fe60806040526004361061004a5760003560e01c80630bf6cc081461004f57806326224c641461007a5780633dcb7f38146100b757806347e7ef24146100e0578063f851a440146100fc575b600080fd5b34801561005b57600080fd5b50610064610127565b604051610071919061036e565b60405180910390f35b34801561008657600080fd5b506100a1600480360381019061009c91906103ec565b61012d565b6040516100ae919061036e565b60405180910390f35b3480156100c357600080fd5b506100de60048036038101906100d99190610445565b610145565b005b6100fa60048036038101906100f59190610485565b61027c565b005b34801561010857600080fd5b50610111610331565b60405161011e91906104d4565b60405180910390f35b60025481565b60016020528060005260406000206000915090505481565b60008054906101000a900473ffffffffffffffffffffffffffffffffffffffff1673ffffffffffffffffffffffffffffffffffffffff163373ffffffffffffffffffffffffffffffffffffffff16146101d3576040517f08c379a00000000000000000000000000000000000000000000000000000000081526004016101ca9061054c565b60405180910390fd5b816002541015610218576040517f08c379a000000000000000000000000000000000000000000000000000000000815260040161020f906105b8565b60405180910390fd5b816002600082825461022a9190610607565b925050819055508073ffffffffffffffffffffffffffffffffffffffff166108fc839081150290604051600060405180830381858888f19350505050158015610277573d6000803e3d6000fd5b505050565b8034146102be576040517f08c379a00000000000000000000000000000000000000000000000000000000081526004016102b590610687565b60405180910390fd5b80600160008473ffffffffffffffffffffffffffffffffffffffff1673ffffffffffffffffffffffffffffffffffffffff168152602001908152602001600020600082825461030d91906106a7565b92505081905550806002600082825461032691906106a7565b925050819055505050565b60008054906101000a900473ffffffffffffffffffffffffffffffffffffffff1681565b6000819050919050565b61036881610355565b82525050565b6000602082019050610383600083018461035f565b92915050565b600080fd5b600073ffffffffffffffffffffffffffffffffffffffff82169050919050565b60006103b98261038e565b9050919050565b6103c9816103ae565b81146103d457600080fd5b50565b6000813590506103e6816103c0565b92915050565b60006020828403121561040257610401610389565b5b6000610410848285016103d7565b91505092915050565b61042281610355565b811461042d57600080fd5b50565b60008135905061043f81610419565b92915050565b6000806040838503121561045c5761045b610389565b5b600061046a85828601610430565b925050602061047b858286016103d7565b9150509250929050565b6000806040838503121561049c5761049b610389565b5b60006104aa858286016103d7565b92505060206104bb85828601610430565b9150509250929050565b6104ce816103ae565b82525050565b60006020820190506104e960008301846104c5565b92915050565b600082825260208201905092915050565b7f4f6e6c792061646d696e00000000000000000000000000000000000000000000600082015250565b6000610536600a836104ef565b915061054182610500565b602082019050919050565b6000602082019050818103600083015261056581610529565b9050919050565b7f496e73756666696369656e742062616c616e6365000000000000000000000000600082015250565b60006105a26014836104ef565b91506105ad8261056c565b602082019050919050565b600060208201905081810360008301526105d181610595565b9050919050565b7f4e487b7100000000000000000000000000000000000000000000000000000000600052601160045260246000fd5b600061061282610355565b915061061d83610355565b9250828203905081811115610635576106346105d8565b5b92915050565b7f496e636f72726563742045544820616d6f756e74000000000000000000000000600082015250565b60006106716014836104ef565b915061067c8261063b565b602082019050919050565b600060208201905081810360008301526106a081610664565b9050919050565b60006106b282610355565b91506106bd83610355565b92508282019050808211156106d5576106d46105d8565b5b9291505056fea26469706673582212205b4c3edb6c2edb09ebde51f5368ffc36f55b1a98308844eaf914de83abcb5ce064736f6c63430008130033","linkReferences":{}},"methodIdentifiers":{"admin()":"f851a440","deposit(address,uint256)":"47e7ef24","userBalances(address)":"26224c64","vaultBalance()":"0bf6cc08","withdrawToMerchant(uint256,address)":"3dcb7f38"},"id":21}